:020000040000fa
:080000000002040000000000f2
:020000040000fa
:04000800ca03000027
:020000040000fa
:04000c00ca03000023
:020000040000fa
:04001000ca0300001f
:020000040000fa
:04001400ca0300001b
:020000040000fa
:04001800ca03000017
:020000040000fa
:04001c00ca03000013
:020000040000fa
:04002000ca0300000f
:020000040000fa
:04002400ca0300000b
:020000040000fa
:04002800ca03000007
:020000040000fa
:04002c00ca03000003
:020000040000fa
:04003000ca030000ff
:020000040000fa
:04003400ca030000fb
:020000040000fa
:04003800ca030000f7
:020000040000fa
:04003c00ca030000f3
:020000040000fa
:04004000ca030000ef
:020000040000fa
:04004400ca030000eb
:020000040000fa
:04004800ca030000e7
:020000040000fa
:04004c00ca030000e3
:020000040000fa
:04005000ca030000df
:020000040000fa
:04005400ca030000db
:020000040000fa
:04005800ca030000d7
:020000040000fa
:04005c00ca030000d3
:020000040000fa
:04006000ca030000cf
:020000040000fa
:04006400ca030000cb
:020000040000fa
:04006800ca030000c7
:020000040000fa
:04006c00ca030000c3
:020000040000fa
:04007000ca030000bf
:020000040000fa
:04007400d8020000ae
:020000040000fa
:04007800ca030000b7
:020000040000fa
:04007c00ca030000b3
:020000040000fa
:04008000ca030000af
:020000040000fa
:04008400ca030000ab
:020000040000fa
:04008800ca030000a7
:020000040000fa
:04008c00ca030000a3
:020000040000fa
:04009000ca0300009f
:020000040000fa
:04009400ca0300009b
:020000040000fa
:04009800ca03000097
:020000040000fa
:04009c00ca03000093
:020000040000fa
:0400a000ca0300008f
:020000040000fa
:0400a400ca0300008b
:020000040000fa
:0400a800ca03000087
:020000040000fa
:0400ac00ca03000083
:020000040000fa
:0400b000ca0300007f
:020000040000fa
:0400b400ca0300007b
:020000040000fa
:0400b800ca03000077
:020000040000fa
:0400bc00ca03000073
:020000040000fa
:0400c000ca0300006f
:020000040000fa
:0400c400ca0300006b
:020000040000fa
:0400c800ca03000067
:020000040000fa
:0400cc00ca03000063
:020000040000fa
:0400d000ca0300005f
:020000040000fa
:0400d400ca0300005b
:020000040000fa
:0400d800ca03000057
:020000040000fa
:0400dc00ca03000053
:020000040000fa
:0400e000ca0300004f
:020000040000fa
:0400e400ca0300004b
:020000040000fa
:0400e800ca03000047
:020000040000fa
:0400ec00ca03000043
:020000040000fa
:0400f000ca0300003f
:020000040000fa
:0400f400ca0300003b
:020000040000fa
:0400f800ca03000037
:020000040000fa
:0400fc00ca03000033
:020000040000fa
:04010000ca0300002e
:020000040000fa
:04010400ca0300002a
:020000040000fa
:04010800ca03000026
:020000040000fa
:04010c00ca03000022
:020000040000fa
:04011000ca0300001e
:020000040000fa
:04011400ca0300001a
:020000040000fa
:04011800ca03000016
:020000040000fa
:04011c00ca03000012
:020000040000fa
:04012000ca0300000e
:020000040000fa
:04012400ca0300000a
:020000040000fa
:04012800ca03000006
:020000040000fa
:04012c00ca03000002
:020000040000fa
:04013000ca030000fe
:020000040000fa
:04013400ca030000fa
:020000040000fa
:04020800ca03000025
:020000040000fa
:04020c00ca03000021
:020000040000fa
:04021000ca0300001d
:020000040000fa
:04021400ca03000019
:020000040000fa
:04021800ca03000015
:020000040000fa
:04021c00ca03000011
:020000040000fa
:04022000ca0300000d
:020000040000fa
:04022400ca03000009
:020000040000fa
:04022800ca03000005
:020000040000fa
:04022c00ca03000001
:020000040000fa
:04023000ca030000fd
:020000040000fa
:04023400ca030000f9
:020000040000fa
:04023800ca030000f5
:020000040000fa
:04023c00ca030000f1
:020000040000fa
:04024000ca030000ed
:020000040000fa
:04024400ca030000e9
:020000040000fa
:04024800ca030000e5
:020000040000fa
:04024c00ca030000e1
:020000040000fa
:04025000ca030000dd
:020000040000fa
:04025400ca030000d9
:020000040000fa
:04025800ca030000d5
:020000040000fa
:04025c00ca030000d1
:020000040000fa
:04026000ca030000cd
:020000040000fa
:04026400ca030000c9
:020000040000fa
:04026800ca030000c5
:020000040000fa
:04026c00ca030000c1
:020000040000fa
:04027000ca030000bd
:020000040000fa
:04027400ca030000b9
:020000040000fa
:04027800ca030000b5
:020000040000fa
:04027c00ca030000b1
:020000040000fa
:04028000ca030000ad
:020000040000fa
:04028400ca030000a9
:020000040000fa
:04028800ca030000a5
:020000040000fa
:04028c00ca030000a1
:020000040000fa
:04029000ca0300009d
:020000040000fa
:04029400ca03000099
:020000040000fa
:04029800ca03000095
:020000040000fa
:04029c00ca03000091
:020000040000fa
:0402a000ca0300008d
:020000040000fa
:0402a400ca03000089
:020000040000fa
:0402a800ca03000085
:020000040000fa
:0402ac00ca03000081
:020000040000fa
:0402b000ca0300007d
:020000040000fa
:0402b400ca03000079
:020000040000fa
:0402b800ca03000075
:020000040000fa
:0402bc00ca03000071
:020000040000fa
:0402c000ca0300006d
:020000040000fa
:0402c400ca03000069
:020000040000fa
:0402c800ca03000065
:020000040000fa
:0402cc00ca03000061
:020000040000fa
:0402d000ca0300005d
:020000040000fa
:0402d400ca03000059
:020000040000fa
:0402d800ca03000055
:020000040000fa
:0402dc00ca03000051
:020000040000fa
:0402e000ca0300004d
:020000040000fa
:0402e400ca03000049
:020000040000fa
:0402e800ca03000045
:020000040000fa
:0402ec00ca03000041
:020000040000fa
:0402f000ca0300003d
:020000040000fa
:0402f400ca03000039
:020000040000fa
:0402f800ca03000035
:020000040000fa
:0402fc00ca03000031
:020000040000fa
:04030000ca0300002c
:020000040000fa
:04030400ca03000028
:020000040000fa
:04030800ca03000024
:020000040000fa
:04030c00ca03000020
:020000040000fa
:04031000ca0300001c
:020000040000fa
:04031400ca03000018
:020000040000fa
:04031800ca03000014
:020000040000fa
:04031c00ca03000010
:020000040000fa
:04032000ca0300000c
:020000040000fa
:04032400ca03000008
:020000040000fa
:04032800ca03000004
:020000040000fa
:04032c00ca03000000
:020000040000fa
:04033000ca030000fc
:020000040000fa
:04033400ca030000f8
:020000040000fa
:100400006f8120000e7f22000e0188000000000096
:10041000000020000000e000020032000001200087
:10042000200288000e000700c07b20000100200091
:10043000810f700001003200220007000000200040
:100440000000e00002003200000002000000000096
:100450006a040200000000000040da000000fe0014
:100460004440a900c00920000000e0000300320061
:1004700000002000a00188004440a8000000060001
:10048000f03fb1000180b10006003500ee03090025
:1004900000000000403fb1000180b100fbff3d00c3
:1004a0001000b000203fb0000200350000800900bd
:1004b00000000000000006008a1f78008b1f7800f3
:1004c0000000060091018800800478000000eb0025
:1004d0001a003700e284440032a0b4009905ba0043
:1004e000e284440032a0b4009906ba00e2844400d9
:1004f00032a0b4000006eb00476fde00fd07b2003b
:10050000636ce10003003a00ebff07000000eb0022
:100510000a003700606ce10004003a00005deb0067
:100520008b05e900fdff3e00040037006168e10033
:10053000010032000086eb000b00070019c7ba006b
:100540001905ba000e04e00003003a000a00e000ba
:10055000e0ff3a0000000600fe07b2009e0188009e
:100560008a047800f5ff3700395dba008b05e90091
:100570000c003200295dba008b05e900080032004a
:100580000c00e00003003a00e284440032a0b40012
:10059000f5ff370019ddba008b05e900faff3a00d4
:1005a0008904e800e184440032a0b40000000600a1
:1005b0003600f800809fbe00829fbe00849fbe0070
:1005c000869fbe000000fa008660a90000c8bf0038
:1005d0000004e00015003a00a1168000000420008d
:1005e000008060000000e00005003a0000402d009f
:1005f00001032000a2ff070010c0b30001e8b7000c
:10060000a116800000002200008060000000e000d1
:1006100059003a0000402d000103200098ff070018
:1006200010c0b30003e8b70053003700a1168000e4
:1006300000042000008060000000e0001b003a0081
:1006400000000000a116800000042000008060006f
:100650000000e000fbff320004c8bf000004e0001f
:1006600009003a0090c0b30004e8b70005c8bf0015
:100670000080fb00428020001241780011812000a0
:10068000827078000900370004c8bf000040e9000c
:1006900004e8b70005c8bf000080fb0042802000ce
:1006a000124178001181200082707800a11680002c
:1006b00000082000008060000000e0001a003a00fe
:1006c00000000000a11680000008200000806000eb
:1006d0000000e000fbff320004c8bf00e94f5000fb
:1006e00008003a000468ef0005c8bf000080fb0066
:1006f0004280200012417800118120008270780031
:100700000900370004c8bf000040e80004e8b70053
:1007100005c8bf000080fb00428020001241780025
:100720001181200082707800a11680000000220054
:10073000008060000000e0000f003a0000402d0043
:10074000010320004eff070005c8bf000040e8007d
:1007500005e8b7000468ef0005c8bf00e44f50008b
:1007600005003a0010c0b30006e8b7000568ef00c6
:1007700010c0b30009e8b7000080fa004f03be00c4
:100780004f02be004f01be004f00be003600f90010
:0c079000004006000040da000000fe00ff
:020000040000fa
:10079c00496e000067720000657300006520000060
:1007ac0053750000204300006c610000766500006a
:1007bc0000300000303000003000000045730000b5
:1007cc0074610000646f00003a410000626900002f
:1007dc0065720000746f0000006300006c61000023
:1007ec0076650000206500007272000061640000f4
:1007fc0061000000496e0000677200006573000024
:10080c0065200000436c000061760000654100002b
:10081c00006300006c61000076650000206300003e
:10082c006f720000726500006374000061000000cc
:10083c006e7500006576000061200000636c00009e
:10084c006176000065000000636c000061760000ba
:10085c006520000064650000666900006e69000098
:10086c0064610000006300006c61000076650000ac
:10087c00206900006e6300006f720000726500005a
:10088c006374000061000000457300007461000097
:10089c00646f00003a630000657200007261000032
:1008ac00646f000000620000313a000041620000f9
:1008bc007269000072200000623400003a6e000081
:0808cc00657700000000000048
:020000040000fa
:1008d4000200fa0010c0b300004f7800f6000700d1
:1008e4003901070028010700c402a800c422a90096
:1008f400c442a90001c8bf00e14f500052003a00b1
:1009040011c0b3000000eb007601070001c8b3007a
:100914000000eb0073010700e03c2800860107009b
:1009240001ccb3000000eb006e010700f03d28008d
:100934008101070010c0b30000e8b700f000070011
:1009440010c0b300004f78000768ef000f003700b5
:1009540007c8bf000080fb00c1802000e140780090
:1009640007c8bf000080fb001281200062407800ad
:1009740080cf5000020032000040eb00004f7800ae
:1009840007c8bf000040e80007e8b70007c8bf0079
:10099400e34f5000eeff36001e407800e14f500058
:1009a40013003a0011c0b3000000eb004d01070032
:1009b40001c8b3000000eb004a010700403e2800d4
:1009c4005d010700c402a900c422a800c442a90012
:1009d4000000000011168000000820000080600064
:1009e4000000e000fbff3a00e70007000f003700bb
:1009f40011c0b3000000eb003a01070001c8b300c6
:100a04000000eb0037010700303f28004a010700cf
:100a14000000000011168000000820000080600023
:100a24000000e000fbff3a00d70007000068ef0079
:100a34000168ef000268ef0010c0b300004f7800b7
:100a44000668ef000568ef0003c8bf00e14f5000df
:100a540086003a0011c0b3000000eb00210107003a
:100a640001c8b3000000eb001e010700004028008d
:100a74003101070001ccb3000000eb0019010700ad
:100a8400f03d28002c01070010c0b30000e8b700b7
:100a94009b00070010c0b300004f78000768ef0008
:100aa4000f00370007c8bf000080fb00c180200092
:100ab400e140780007c8bf000080fb0012812000dd
:100ac4006240780080cf5000020032000040eb000a
:100ad400004f780007c8bf000040e80007e8b700ef
:100ae40007c8bf00e34f5000eeff36001e407800f9
:100af400e14f50004b003a000668ef000568ef0034
:100b0400c402a900c422a900c442a80011c0b300b1
:100b14000000eb00f300070001c8b3000000eb0085
:100b2400f0000700f0402800030107000000000067
:100b34001116800000082000008060000000e00022
:100b4400fbff3a0011c0b3000000eb00e500070012
:100b540001c8b3000000eb00e2000700e0412800f8
:100b6400f500070001ccb3000000eb00dd00070036
:100b7400f03d2800f0000700610007000768ef005f
:100b84001200370007c8bf000080fb0071802000fe
:100b9400914078008180fb001281200062c17800be
:100ba400c18020008270780011c0b3000000eb0007
:100bb400cc00070001c8b3000000eb00c900070027
:100bc40007c8bf000040e80007e8b70007c8bf0037
:100bd400e34f5000ebff360011c0b3000000eb0000
:100be400c000070001c8b3000000eb00bd0007000f
:100bf400a0422800d0000700000000001116800069
:100c040000082000008060000000e000fbff3a00c4
:100c1400c402a900c422a900c442a8005a000700c3
:100c24001200370011c0b3000000eb00ad00070054
:100c340001c8b3000000eb00aa000700904328009d
:100c4400bd0007000000000011168000000820000d
:100c5400008060000000e000fbff3a00c402a8002e
:100c6400c422a900c442a900470007000068ef009d
:100c74000368ef000268ef000668ef000968ef0000
:100c84000768ef000800370007c8bf000080fb00ba
:100c9400118120000041eb008270780007c8bf007a
:100ca4000040e80007e8b70007c8bf00e34f500062
:100cb400f5ff36000cff37000000fa00c0e2a80080
:100cc400d2c2a800d2e2a800d3a2a800c002a90000
:100cd400c022a900c042a900c202a800c222a900e1
:100ce400c242a9008660a90061e0a8006200a800d1
:100cf4006260a8009660a8000080fa000000060068
:100d04000000fa0010c0b30000e8b7001300370079
:100d140001ccb3000000eb00720007000768ef008d
:100d24000b00370007c8bf000080fb0011812000c2
:100d3400614078000043b00080407800100020003b
:100d44006800070007c8bf000040e80007e8b700d4
:100d540007c8bf00e34f5000f2ff360006c8bf00cb
:100d64000004e000eaff32000000000009c8bf00f0
:100d74000004e000fdff32000768ef000968ef009f
:100d84000080fa00000006000000fa0011c0b30061
:100d94000000eb005300070021c8b3000000eb0083
:100da40050000700a04428006300070001ccb300f2
:100db4000000eb004b000700904528005e00070090
:100dc4000080fa00000006000000fa00f03b280052
:100dd40000308800f03f2000103088001000200010
:100de400603088000426ef000003280020088800f3
:100df4000021ef000000000001088000f07c2000ca
:100e0400808f5000fcff36000426ef008003200092
:100e1400403088000021ef0000000000000880003e
:100e2400e20f5000fdff3600c00020004030880073
:100e34000021ef000000000000088000e20f5000d5
:100e4400fdff360010002000403088000021ef0034
:100e5400000000000108800030062000808f500050
:100e6400fcff360060002000403088000021ef00c5
:100e7400000000000108800030062000808f500030
:100e8400fcff36000080fa00000006000400fa00af
:100e940010079800000000001130800000002800b6
:100ea400008060000000e000fbff3a001e0090009c
:100eb4002030880040308000000f780000000000df
:100ec4001130800000002800008060000000e00075
:100ed400fbff3a0040308000004078000080fa00b8
:100ee400000006000400fa00000f78002147980073
:100ef400000000000000eb00e4ff07000004e00035
:100f0400fcff3500000000001130800000002800c4
:100f1400008060000000e000fbff3a001e00780043
:100f2400203088002e4090000000fb0040308800f4
:100f34000080fa00000006000200fa00000f7800aa
:100f4400060037001e007800104078001e0fe800ed
:100f54008040780010002000e2ff07001e007800a7
:100f6400104078000004e000f6ff3a000080fa0028
:040f74000000060073
:020000040000fa
:100f78000c0800000a000000000000000008000043
:100f88000a000000000000000a080000020000003b
:0c0f98000200000001000000000000004a
:020000040000fa
:020000040002f8
:04aff800bd7b00001d
:020000040000fa
:020000040002f8
:04affc007fbf000013
:00000001FF
